{
  "contractName": "Identity",
  "abi": [
    {
      "constant": true,
      "inputs": [
        {
          "internalType": "uint256",
          "name": "",
          "type": "uint256"
        }
      ],
      "name": "acc",
      "outputs": [
        {
          "internalType": "uint256",
          "name": "acid",
          "type": "uint256"
        },
        {
          "internalType": "address",
          "name": "acaddr",
          "type": "address"
        },
        {
          "internalType": "string",
          "name": "pkey",
          "type": "string"
        },
        {
          "internalType": "string",
          "name": "aname",
          "type": "string"
        },
        {
          "internalType": "string",
          "name": "stat",
          "type": "string"
        }
      ],
      "payable": false,
      "stateMutability": "view",
      "type": "function"
    },
    {
      "constant": true,
      "inputs": [],
      "name": "account",
      "outputs": [
        {
          "internalType": "uint256",
          "name": "",
          "type": "uint256"
        }
      ],
      "payable": false,
      "stateMutability": "view",
      "type": "function"
    },
    {
      "constant": true,
      "inputs": [],
      "name": "dcount",
      "outputs": [
        {
          "internalType": "uint256",
          "name": "",
          "type": "uint256"
        }
      ],
      "payable": false,
      "stateMutability": "view",
      "type": "function"
    },
    {
      "constant": true,
      "inputs": [
        {
          "internalType": "uint256",
          "name": "",
          "type": "uint256"
        }
      ],
      "name": "docs",
      "outputs": [
        {
          "internalType": "uint256",
          "name": "docid",
          "type": "uint256"
        },
        {
          "internalType": "string",
          "name": "usrname",
          "type": "string"
        },
        {
          "internalType": "string",
          "name": "vname",
          "type": "string"
        },
        {
          "internalType": "string",
          "name": "docname",
          "type": "string"
        },
        {
          "internalType": "string",
          "name": "ipfshash",
          "type": "string"
        },
        {
          "internalType": "address",
          "name": "owner",
          "type": "address"
        }
      ],
      "payable": false,
      "stateMutability": "view",
      "type": "function"
    },
    {
      "constant": true,
      "inputs": [
        {
          "internalType": "uint256",
          "name": "",
          "type": "uint256"
        }
      ],
      "name": "dtrans",
      "outputs": [
        {
          "internalType": "uint256",
          "name": "tid",
          "type": "uint256"
        },
        {
          "internalType": "string",
          "name": "orgname",
          "type": "string"
        },
        {
          "internalType": "string",
          "name": "uname",
          "type": "string"
        },
        {
          "internalType": "string",
          "name": "sel",
          "type": "string"
        },
        {
          "internalType": "string",
          "name": "desc",
          "type": "string"
        },
        {
          "internalType": "address",
          "name": "owner",
          "type": "address"
        },
        {
          "internalType": "address",
          "name": "to",
          "type": "address"
        },
        {
          "internalType": "bool",
          "name": "status",
          "type": "bool"
        },
        {
          "internalType": "string",
          "name": "upd",
          "type": "string"
        }
      ],
      "payable": false,
      "stateMutability": "view",
      "type": "function"
    },
    {
      "constant": true,
      "inputs": [],
      "name": "ktcount",
      "outputs": [
        {
          "internalType": "uint256",
          "name": "",
          "type": "uint256"
        }
      ],
      "payable": false,
      "stateMutability": "view",
      "type": "function"
    },
    {
      "constant": true,
      "inputs": [
        {
          "internalType": "uint256",
          "name": "",
          "type": "uint256"
        }
      ],
      "name": "ktrans",
      "outputs": [
        {
          "internalType": "uint256",
          "name": "tranid",
          "type": "uint256"
        },
        {
          "internalType": "string",
          "name": "org",
          "type": "string"
        },
        {
          "internalType": "string",
          "name": "username",
          "type": "string"
        },
        {
          "internalType": "string",
          "name": "typed",
          "type": "string"
        },
        {
          "internalType": "string",
          "name": "purp",
          "type": "string"
        },
        {
          "internalType": "address",
          "name": "owner",
          "type": "address"
        },
        {
          "internalType": "address",
          "name": "to",
          "type": "address"
        },
        {
          "internalType": "bool",
          "name": "status",
          "type": "bool"
        },
        {
          "internalType": "string",
          "name": "upd",
          "type": "string"
        }
      ],
      "payable": false,
      "stateMutability": "view",
      "type": "function"
    },
    {
      "constant": true,
      "inputs": [],
      "name": "regCount",
      "outputs": [
        {
          "internalType": "uint256",
          "name": "",
          "type": "uint256"
        }
      ],
      "payable": false,
      "stateMutability": "view",
      "type": "function"
    },
    {
      "constant": true,
      "inputs": [
        {
          "internalType": "uint256",
          "name": "",
          "type": "uint256"
        }
      ],
      "name": "res",
      "outputs": [
        {
          "internalType": "uint256",
          "name": "respid",
          "type": "uint256"
        },
        {
          "internalType": "uint256",
          "name": "reqid",
          "type": "uint256"
        },
        {
          "internalType": "address",
          "name": "owner",
          "type": "address"
        }
      ],
      "payable": false,
      "stateMutability": "view",
      "type": "function"
    },
    {
      "constant": true,
      "inputs": [],
      "name": "respcount",
      "outputs": [
        {
          "internalType": "uint256",
          "name": "",
          "type": "uint256"
        }
      ],
      "payable": false,
      "stateMutability": "view",
      "type": "function"
    },
    {
      "constant": true,
      "inputs": [],
      "name": "transCount",
      "outputs": [
        {
          "internalType": "uint256",
          "name": "",
          "type": "uint256"
        }
      ],
      "payable": false,
      "stateMutability": "view",
      "type": "function"
    },
    {
      "constant": true,
      "inputs": [
        {
          "internalType": "uint256",
          "name": "",
          "type": "uint256"
        }
      ],
      "name": "users",
      "outputs": [
        {
          "internalType": "uint256",
          "name": "id",
          "type": "uint256"
        },
        {
          "internalType": "string",
          "name": "name",
          "type": "string"
        },
        {
          "internalType": "string",
          "name": "fname",
          "type": "string"
        },
        {
          "internalType": "string",
          "name": "gender",
          "type": "string"
        },
        {
          "internalType": "string",
          "name": "email",
          "type": "string"
        },
        {
          "internalType": "uint256",
          "name": "mobile",
          "type": "uint256"
        },
        {
          "internalType": "string",
          "name": "addr",
          "type": "string"
        },
        {
          "internalType": "address",
          "name": "owner",
          "type": "address"
        }
      ],
      "payable": false,
      "stateMutability": "view",
      "type": "function"
    },
    {
      "constant": false,
      "inputs": [
        {
          "internalType": "address",
          "name": "acaddr",
          "type": "address"
        },
        {
          "internalType": "string",
          "name": "_pkey",
          "type": "string"
        },
        {
          "internalType": "string",
          "name": "_aname",
          "type": "string"
        },
        {
          "internalType": "string",
          "name": "_stat",
          "type": "string"
        }
      ],
      "name": "createacc",
      "outputs": [],
      "payable": false,
      "stateMutability": "nonpayable",
      "type": "function"
    },
    {
      "constant": false,
      "inputs": [
        {
          "internalType": "string",
          "name": "_name",
          "type": "string"
        },
        {
          "internalType": "string",
          "name": "_fname",
          "type": "string"
        },
        {
          "internalType": "string",
          "name": "_gender",
          "type": "string"
        },
        {
          "internalType": "string",
          "name": "_email",
          "type": "string"
        },
        {
          "internalType": "uint256",
          "name": "_mobile",
          "type": "uint256"
        },
        {
          "internalType": "string",
          "name": "_addr",
          "type": "string"
        }
      ],
      "name": "createdata",
      "outputs": [],
      "payable": false,
      "stateMutability": "nonpayable",
      "type": "function"
    },
    {
      "constant": false,
      "inputs": [
        {
          "internalType": "string",
          "name": "_orgname",
          "type": "string"
        },
        {
          "internalType": "string",
          "name": "_uname",
          "type": "string"
        },
        {
          "internalType": "string",
          "name": "_sel",
          "type": "string"
        },
        {
          "internalType": "string",
          "name": "_desc",
          "type": "string"
        },
        {
          "internalType": "address",
          "name": "_to",
          "type": "address"
        }
      ],
      "name": "requestdata",
      "outputs": [],
      "payable": false,
      "stateMutability": "nonpayable",
      "type": "function"
    },
    {
      "constant": false,
      "inputs": [
        {
          "internalType": "string",
          "name": "_org",
          "type": "string"
        },
        {
          "internalType": "string",
          "name": "_username",
          "type": "string"
        },
        {
          "internalType": "string",
          "name": "_typed",
          "type": "string"
        },
        {
          "internalType": "string",
          "name": "_purp",
          "type": "string"
        },
        {
          "internalType": "address",
          "name": "_to",
          "type": "address"
        }
      ],
      "name": "requestdocument",
      "outputs": [],
      "payable": false,
      "stateMutability": "nonpayable",
      "type": "function"
    },
    {
      "constant": false,
      "inputs": [
        {
          "internalType": "string",
          "name": "_usrname",
          "type": "string"
        },
        {
          "internalType": "string",
          "name": "_vname",
          "type": "string"
        },
        {
          "internalType": "string",
          "name": "_docname",
          "type": "string"
        },
        {
          "internalType": "string",
          "name": "_ipfshash",
          "type": "string"
        }
      ],
      "name": "uploaddocument",
      "outputs": [],
      "payable": false,
      "stateMutability": "nonpayable",
      "type": "function"
    },
    {
      "constant": false,
      "inputs": [
        {
          "internalType": "uint256",
          "name": "acid",
          "type": "uint256"
        },
        {
          "internalType": "string",
          "name": "_name",
          "type": "string"
        }
      ],
      "name": "addaccount",
      "outputs": [],
      "payable": false,
      "stateMutability": "nonpayable",
      "type": "function"
    },
    {
      "constant": false,
      "inputs": [
        {
          "internalType": "uint256",
          "name": "reqid",
          "type": "uint256"
        },
        {
          "internalType": "uint256",
          "name": "t",
          "type": "uint256"
        },
        {
          "internalType": "uint256",
          "name": "p",
          "type": "uint256"
        }
      ],
      "name": "addresponse",
      "outputs": [],
      "payable": false,
      "stateMutability": "nonpayable",
      "type": "function"
    }
  ],
  "bytecode": "0x60806040526000805560646001556101f460025560006003556000600455600060055534801561002e57600080fd5b506139398061003e6000396000f3fe608060405234801561001057600080fd5b50600436106101215760003560e01c80635f6d2230116100ad578063c87941d211610071578063c87941d21461171a578063d4e8fd2e14611923578063dbbed62d1461199f578063e9bfa1dd146119bd578063ec7c403c14611c3d57610121565b80635f6d2230146110aa5780638f7ec0ef146110c85780639d97b60f14611368578063a2e250561461142d578063a7e9b95c1461144b57610121565b80633de6cdc8116100f45780633de6cdc814610b5257806345554d0014610b945780634ec4b75114610d4d578063513a462a1461106e5780635dab24201461108c57610121565b80630f2e782a1461012657806323389c5a146103c657806327b5f3cb146105eb578063365b98b2146108ba575b600080fd5b6103c4600480360360a081101561013c57600080fd5b810190808035906020019064010000000081111561015957600080fd5b82018360208201111561016b57600080fd5b8035906020019184600183028401116401000000008311171561018d57600080fd5b91908080601f016020809104026020016040519081016040528093929190818152602001838380828437600081840152601f19601f820116905080830192505050505050509192919290803590602001906401000000008111156101f057600080fd5b82018360208201111561020257600080fd5b8035906020019184600183028401116401000000008311171561022457600080fd5b91908080601f016020809104026020016040519081016040528093929190818152602001838380828437600081840152601f19601f8201169050808301925050505050505091929192908035906020019064010000000081111561028757600080fd5b82018360208201111561029957600080fd5b803590602001918460018302840111640100000000831117156102bb57600080fd5b91908080601f016020809104026020016040519081016040528093929190818152602001838380828437600081840152601f19601f8201169050808301925050505050505091929192908035906020019064010000000081111561031e57600080fd5b82018360208201111561033057600080fd5b8035906020019184600183028401116401000000008311171561035257600080fd5b91908080601f016020809104026020016040519081016040528093929190818152602001838380828437600081840152601f19601f820116905080830192505050505050509192919290803573ffffffffffffffffffffffffffffffffffffffff169060200190929190505050611c5b565b005b6103f2600480360360208110156103dc57600080fd5b8101908080359060200190929190505050611e7c565b60405180878152602001806020018060200180602001806020018673ffffffffffffffffffffffffffffffffffffffff1673ffffffffffffffffffffffffffffffffffffffff16815260200185810385528a818151815260200191508051906020019080838360005b8381101561047657808201518184015260208101905061045b565b50505050905090810190601f1680156104a35780820380516001836020036101000a031916815260200191505b50858103845289818151815260200191508051906020019080838360005b838110156104dc5780820151818401526020810190506104c1565b50505050905090810190601f1680156105095780820380516001836020036101000a031916815260200191505b50858103835288818151815260200191508051906020019080838360005b83811015610542578082015181840152602081019050610527565b50505050905090810190601f16801561056f5780820380516001836020036101000a031916815260200191505b50858103825287818151815260200191508051906020019080838360005b838110156105a857808201518184015260208101905061058d565b50505050905090810190601f1680156105d55780820380516001836020036101000a031916815260200191505b509a505050505050505050505060405180910390f35b6106176004803603602081101561060157600080fd5b8101908080359060200190929190505050612138565b604051808a8152602001806020018060200180602001806020018973ffffffffffffffffffffffffffffffffffffffff1673ffffffffffffffffffffffffffffffffffffffff1681526020018873ffffffffffffffffffffffffffffffffffffffff1673ffffffffffffffffffffffffffffffffffffffff168152602001871515151581526020018060200186810386528e818151815260200191508051906020019080838360005b838110156106db5780820151818401526020810190506106c0565b50505050905090810190601f1680156107085780820380516001836020036101000a031916815260200191505b5086810385528d818151815260200191508051906020019080838360005b83811015610741578082015181840152602081019050610726565b50505050905090810190601f16801561076e5780820380516001836020036101000a031916815260200191505b5086810384528c818151815260200191508051906020019080838360005b838110156107a757808201518184015260208101905061078c565b50505050905090810190601f1680156107d45780820380516001836020036101000a031916815260200191505b5086810383528b818151815260200191508051906020019080838360005b8381101561080d5780820151818401526020810190506107f2565b50505050905090810190601f16801561083a5780820380516001836020036101000a031916815260200191505b50868103825287818151815260200191508051906020019080838360005b83811015610873578082015181840152602081019050610858565b50505050905090810190601f1680156108a05780820380516001836020036101000a031916815260200191505b509e50505050505050505050505050505060405180910390f35b6108e6600480360360208110156108d057600080fd5b81019080803590602001909291905050506124cb565b6040518089815260200180602001806020018060200180602001888152602001806020018773ffffffffffffffffffffffffffffffffffffffff1673ffffffffffffffffffffffffffffffffffffffff16815260200186810386528d818151815260200191508051906020019080838360005b83811015610974578082015181840152602081019050610959565b50505050905090810190601f1680156109a15780820380516001836020036101000a031916815260200191505b5086810385528c818151815260200191508051906020019080838360005b838110156109da5780820151818401526020810190506109bf565b50505050905090810190601f168015610a075780820380516001836020036101000a031916815260200191505b5086810384528b818151815260200191508051906020019080838360005b83811015610a40578082015181840152602081019050610a25565b50505050905090810190601f168015610a6d5780820380516001836020036101000a031916815260200191505b5086810383528a818151815260200191508051906020019080838360005b83811015610aa6578082015181840152602081019050610a8b565b50505050905090810190601f168015610ad35780820380516001836020036101000a031916815260200191505b50868103825288818151815260200191508051906020019080838360005b83811015610b0c578082015181840152602081019050610af1565b50505050905090810190601f168015610b395780820380516001836020036101000a031916815260200191505b509d505050505050505050505050505060405180910390f35b610b9260048036036060811015610b6857600080fd5b8101908080359060200190929190803590602001909291908035906020019092919050505061282b565b005b610bc060048036036020811015610baa57600080fd5b8101908080359060200190929190505050612b5d565b604051808681526020018573ffffffffffffffffffffffffffffffffffffffff1673ffffffffffffffffffffffffffffffffffffffff168152602001806020018060200180602001848103845287818151815260200191508051906020019080838360005b83811015610c40578082015181840152602081019050610c25565b50505050905090810190601f168015610c6d5780820380516001836020036101000a031916815260200191505b50848103835286818151815260200191508051906020019080838360005b83811015610ca6578082015181840152602081019050610c8b565b50505050905090810190601f168015610cd35780820380516001836020036101000a031916815260200191505b50848103825285818151815260200191508051906020019080838360005b83811015610d0c578082015181840152602081019050610cf1565b50505050905090810190601f168015610d395780820380516001836020036101000a031916815260200191505b509850505050505050505060405180910390f35b61106c600480360360c0811015610d6357600080fd5b8101908080359060200190640100000000811115610d8057600080fd5b820183602082011115610d9257600080fd5b80359060200191846001830284011164010000000083111715610db457600080fd5b91908080601f016020809104026020016040519081016040528093929190818152602001838380828437600081840152601f19601f82011690508083019250505050505050919291929080359060200190640100000000811115610e1757600080fd5b820183602082011115610e2957600080fd5b80359060200191846001830284011164010000000083111715610e4b57600080fd5b91908080601f016020809104026020016040519081016040528093929190818152602001838380828437600081840152601f19601f82011690508083019250505050505050919291929080359060200190640100000000811115610eae57600080fd5b820183602082011115610ec057600080fd5b80359060200191846001830284011164010000000083111715610ee257600080fd5b91908080601f016020809104026020016040519081016040528093929190818152602001838380828437600081840152601f19601f82011690508083019250505050505050919291929080359060200190640100000000811115610f4557600080fd5b820183602082011115610f5757600080fd5b80359060200191846001830284011164010000000083111715610f7957600080fd5b91908080601f016020809104026020016040519081016040528093929190818152602001838380828437600081840152601f19601f8201169050808301925050505050505091929192908035906020019092919080359060200190640100000000811115610fe657600080fd5b820183602082011115610ff857600080fd5b8035906020019184600183028401116401000000008311171561101a57600080fd5b91908080601f016020809104026020016040519081016040528093929190818152602001838380828437600081840152601f19601f820116905080830192505050505050509192919290505050612d7b565b005b611076612ee9565b6040518082815260200191505060405180910390f35b611094612eef565b6040518082815260200191505060405180910390f35b6110b2612ef5565b6040518082815260200191505060405180910390f35b611366600480360360a08110156110de57600080fd5b81019080803590602001906401000000008111156110fb57600080fd5b82018360208201111561110d57600080fd5b8035906020019184600183028401116401000000008311171561112f57600080fd5b91908080601f016020809104026020016040519081016040528093929190818152602001838380828437600081840152601f19601f8201169050808301925050505050505091929192908035906020019064010000000081111561119257600080fd5b8201836020820111156111a457600080fd5b803590602001918460018302840111640100000000831117156111c657600080fd5b91908080601f016020809104026020016040519081016040528093929190818152602001838380828437600081840152601f19601f8201169050808301925050505050505091929192908035906020019064010000000081111561122957600080fd5b82018360208201111561123b57600080fd5b8035906020019184600183028401116401000000008311171561125d57600080fd5b91908080601f016020809104026020016040519081016040528093929190818152602001838380828437600081840152601f19601f820116905080830192505050505050509192919290803590602001906401000000008111156112c057600080fd5b8201836020820111156112d257600080fd5b803590602001918460018302840111640100000000831117156112f457600080fd5b91908080601f016020809104026020016040519081016040528093929190818152602001838380828437600081840152601f19601f820116905080830192505050505050509192919290803573ffffffffffffffffffffffffffffffffffffffff169060200190929190505050612efb565b005b61142b6004803603604081101561137e57600080fd5b8101908080359060200190929190803590602001906401000000008111156113a557600080fd5b8201836020820111156113b757600080fd5b803590602001918460018302840111640100000000831117156113d957600080fd5b91908080601f016020809104026020016040519081016040528093929190818152602001838380828437600081840152601f19601f82011690508083019250505050505050919291929050505061311c565b005b61143561319f565b6040518082815260200191505060405180910390f35b6114776004803603602081101561146157600080fd5b81019080803590602001909291905050506131a5565b604051808a8152602001806020018060200180602001806020018973ffffffffffffffffffffffffffffffffffffffff1673ffffffffffffffffffffffffffffffffffffffff1681526020018873ffffffffffffffffffffffffffffffffffffffff1673ffffffffffffffffffffffffffffffffffffffff168152602001871515151581526020018060200186810386528e818151815260200191508051906020019080838360005b8381101561153b578082015181840152602081019050611520565b50505050905090810190601f1680156115685780820380516001836020036101000a031916815260200191505b5086810385528d818151815260200191508051906020019080838360005b838110156115a1578082015181840152602081019050611586565b50505050905090810190601f1680156115ce5780820380516001836020036101000a031916815260200191505b5086810384528c818151815260200191508051906020019080838360005b838110156116075780820151818401526020810190506115ec565b50505050905090810190601f1680156116345780820380516001836020036101000a031916815260200191505b5086810383528b818151815260200191508051906020019080838360005b8381101561166d578082015181840152602081019050611652565b50505050905090810190601f16801561169a5780820380516001836020036101000a031916815260200191505b50868103825287818151815260200191508051906020019080838360005b838110156116d35780820151818401526020810190506116b8565b50505050905090810190601f1680156117005780820380516001836020036101000a031916815260200191505b509e50505050505050505050505050505060405180910390f35b6119216004803603608081101561173057600080fd5b81019080803573ffffffffffffffffffffffffffffffffffffffff1690602001909291908035906020019064010000000081111561176d57600080fd5b82018360208201111561177f57600080fd5b803590602001918460018302840111640100000000831117156117a157600080fd5b91908080601f016020809104026020016040519081016040528093929190818152602001838380828437600081840152601f19601f8201169050808301925050505050505091929192908035906020019064010000000081111561180457600080fd5b82018360208201111561181657600080fd5b8035906020019184600183028401116401000000008311171561183857600080fd5b91908080601f016020809104026020016040519081016040528093929190818152602001838380828437600081840152601f19601f8201169050808301925050505050505091929192908035906020019064010000000081111561189b57600080fd5b8201836020820111156118ad57600080fd5b803590602001918460018302840111640100000000831117156118cf57600080fd5b91908080601f016020809104026020016040519081016040528093929190818152602001838380828437600081840152601f19601f820116905080830192505050505050509192919290505050613538565b005b61194f6004803603602081101561193957600080fd5b810190808035906020019092919050505061364f565b604051808481526020018381526020018273ffffffffffffffffffffffffffffffffffffffff1673ffffffffffffffffffffffffffffffffffffffff168152602001935050505060405180910390f35b6119a7613699565b6040518082815260200191505060405180910390f35b611c3b600480360360808110156119d357600080fd5b81019080803590602001906401000000008111156119f057600080fd5b820183602082011115611a0257600080fd5b80359060200191846001830284011164010000000083111715611a2457600080fd5b91908080601f016020809104026020016040519081016040528093929190818152602001838380828437600081840152601f19601f82011690508083019250505050505050919291929080359060200190640100000000811115611a8757600080fd5b820183602082011115611a9957600080fd5b80359060200191846001830284011164010000000083111715611abb57600080fd5b91908080601f016020809104026020016040519081016040528093929190818152602001838380828437600081840152601f19601f82011690508083019250505050505050919291929080359060200190640100000000811115611b1e57600080fd5b820183602082011115611b3057600080fd5b80359060200191846001830284011164010000000083111715611b5257600080fd5b91908080601f016020809104026020016040519081016040528093929190818152602001838380828437600081840152601f19601f82011690508083019250505050505050919291929080359060200190640100000000811115611bb557600080fd5b820183602082011115611bc757600080fd5b80359060200191846001830284011164010000000083111715611be957600080fd5b91908080601f016020809104026020016040519081016040528093929190818152602001838380828437600081840152601f19601f82011690508083019250505050505050919291929050505061369f565b005b611c456137d9565b6040518082815260200191505060405180910390f35b60016000815480929190600101919050555060405180610120016040528060015481526020018681526020018581526020018481526020018381526020013373ffffffffffffffffffffffffffffffffffffffff1681526020018273ffffffffffffffffffffffffffffffffffffffff1681526020016000151581526020016040518060400160405280600281526020017f4e41000000000000000000000000000000000000000000000000000000000000815250815250600760006001548152602001908152602001600020600082015181600001556020820151816001019080519060200190611d4e9291906137df565b506040820151816002019080519060200190611d6b9291906137df565b506060820151816003019080519060200190611d889291906137df565b506080820151816004019080519060200190611da59291906137df565b5060a08201518160050160006101000a81548173ffffffffffffffffffffffffffffffffffffffff021916908373ffffffffffffffffffffffffffffffffffffffff16021790555060c08201518160060160006101000a81548173ffffffffffffffffffffffffffffffffffffffff021916908373ffffffffffffffffffffffffffffffffffffffff16021790555060e08201518160060160146101000a81548160ff021916908315150217905550610100820151816007019080519060200190611e719291906137df565b509050505050505050565b600a602052806000526040600020600091509050806000015490806001018054600181600116156101000203166002900480601f016020809104026020016040519081016040528092919081815260200182805460018160011615610100020316600290048015611f2e5780601f10611f0357610100808354040283529160200191611f2e565b820191906000526020600020905b815481529060010190602001808311611f1157829003601f168201915b505050505090806002018054600181600116156101000203166002900480601f016020809104026020016040519081016040528092919081815260200182805460018160011615610100020316600290048015611fcc5780601f10611fa157610100808354040283529160200191611fcc565b820191906000526020600020905b815481529060010190602001808311611faf57829003601f168201915b505050505090806003018054600181600116156101000203166002900480601f01602080910402602001604051908101604052809291908181526020018280546001816001161561010002031660029004801561206a5780601f1061203f5761010080835404028352916020019161206a565b820191906000526020600020905b81548152906001019060200180831161204d57829003601f168201915b505050505090806004018054600181600116156101000203166002900480601f0160208091040260200160405190810160405280929190818152602001828054600181600116156101000203166002900480156121085780601f106120dd57610100808354040283529160200191612108565b820191906000526020600020905b8154815290600101906020018083116120eb57829003601f168201915b5050505050908060050160009054906101000a900473ffffffffffffffffffffffffffffffffffffffff16905086565b6008602052806000526040600020600091509050806000015490806001018054600181600116156101000203166002900480601f0160208091040260200160405190810160405280929190818152602001828054600181600116156101000203166002900480156121ea5780601f106121bf576101008083540402835291602001916121ea565b820191906000526020600020905b8154815290600101906020018083116121cd57829003601f168201915b505050505090806002018054600181600116156101000203166002900480601f0160208091040260200160405190810160405280929190818152602001828054600181600116156101000203166002900480156122885780601f1061225d57610100808354040283529160200191612288565b820191906000526020600020905b81548152906001019060200180831161226b57829003601f168201915b505050505090806003018054600181600116156101000203166002900480601f0160208091040260200160405190810160405280929190818152602001828054600181600116156101000203166002900480156123265780601f106122fb57610100808354040283529160200191612326565b820191906000526020600020905b81548152906001019060200180831161230957829003601f168201915b505050505090806004018054600181600116156101000203166002900480601f0160208091040260200160405190810160405280929190818152602001828054600181600116156101000203166002900480156123c45780601f10612399576101008083540402835291602001916123c4565b820191906000526020600020905b8154815290600101906020018083116123a757829003601f168201915b5050505050908060050160009054906101000a900473ffffffffffffffffffffffffffffffffffffffff16908060060160009054906101000a900473ffffffffffffffffffffffffffffffffffffffff16908060060160149054906101000a900460ff1690806007018054600181600116156101000203166002900480601f0160208091040260200160405190810160405280929190818152602001828054600181600116156101000203166002900480156124c15780601f10612496576101008083540402835291602001916124c1565b820191906000526020600020905b8154815290600101906020018083116124a457829003601f168201915b5050505050905089565b6009602052806000526040600020600091509050806000015490806001018054600181600116156101000203166002900480601f01602080910402602001604051908101604052809291908181526020018280546001816001161561010002031660029004801561257d5780601f106125525761010080835404028352916020019161257d565b820191906000526020600020905b81548152906001019060200180831161256057829003601f168201915b505050505090806002018054600181600116156101000203166002900480601f01602080910402602001604051908101604052809291908181526020018280546001816001161561010002031660029004801561261b5780601f106125f05761010080835404028352916020019161261b565b820191906000526020600020905b8154815290600101906020018083116125fe57829003601f168201915b505050505090806003018054600181600116156101000203166002900480601f0160208091040260200160405190810160405280929190818152602001828054600181600116156101000203166002900480156126b95780601f1061268e576101008083540402835291602001916126b9565b820191906000526020600020905b81548152906001019060200180831161269c57829003601f168201915b505050505090806004018054600181600116156101000203166002900480601f0160208091040260200160405190810160405280929190818152602001828054600181600116156101000203166002900480156127575780601f1061272c57610100808354040283529160200191612757565b820191906000526020600020905b81548152906001019060200180831161273a57829003601f168201915b505050505090806005015490806006018054600181600116156101000203166002900480601f0160208091040260200160405190810160405280929190818152602001828054600181600116156101000203166002900480156127fb5780601f106127d0576101008083540402835291602001916127fb565b820191906000526020600020905b8154815290600101906020018083116127de57829003601f168201915b5050505050908060070160009054906101000a900473ffffffffffffffffffffffffffffffffffffffff16905088565b600460008154809291906001019190505550600060076000858152602001908152602001600020905060006008600086815260200190815260200160002090506001831415612a045760018414156128ed5760018260060160146101000a81548160ff0219169083151502179055506040518060400160405280600781526020017f55706461746564000000000000000000000000000000000000000000000000008152508260070190805190602001906128e792919061385f565b50612959565b60018160060160146101000a81548160ff0219169083151502179055506040518060400160405280600781526020017f557064617465640000000000000000000000000000000000000000000000000081525081600701908051906020019061295792919061385f565b505b604051806060016040528060045481526020018681526020013373ffffffffffffffffffffffffffffffffffffffff16815250600b60006004548152602001908152602001600020600082015181600001556020820151816001015560408201518160020160006101000a81548173ffffffffffffffffffffffffffffffffffffffff021916908373ffffffffffffffffffffffffffffffffffffffff160217905550905050612b56565b6001841415612a60576040518060400160405280600781526020017f5570646174656400000000000000000000000000000000000000000000000000815250826007019080519060200190612a5a92919061385f565b50612aaf565b6040518060400160405280600781526020017f5570646174656400000000000000000000000000000000000000000000000000815250816007019080519060200190612aad92919061385f565b505b604051806060016040528060045481526020018681526020013373ffffffffffffffffffffffffffffffffffffffff16815250600b60006004548152602001908152602001600020600082015181600001556020820151816001015560408201518160020160006101000a81548173ffffffffffffffffffffffffffffffffffffffff021916908373ffffffffffffffffffffffffffffffffffffffff1602179055509050505b5050505050565b600c6020528060005260406000206000915090508060000154908060010160009054906101000a900473ffffffffffffffffffffffffffffffffffffffff1690806002018054600181600116156101000203166002900480601f016020809104026020016040519081016040528092919081815260200182805460018160011615610100020316600290048015612c355780601f10612c0a57610100808354040283529160200191612c35565b820191906000526020600020905b815481529060010190602001808311612c1857829003601f168201915b505050505090806003018054600181600116156101000203166002900480601f016020809104026020016040519081016040528092919081815260200182805460018160011615610100020316600290048015612cd35780601f10612ca857610100808354040283529160200191612cd3565b820191906000526020600020905b815481529060010190602001808311612cb657829003601f168201915b505050505090806004018054600181600116156101000203166002900480601f016020809104026020016040519081016040528092919081815260200182805460018160011615610100020316600290048015612d715780601f10612d4657610100808354040283529160200191612d71565b820191906000526020600020905b815481529060010190602001808311612d5457829003601f168201915b5050505050905085565b600080815480929190600101919050555060405180610100016040528060005481526020018781526020018681526020018581526020018481526020018381526020018281526020013373ffffffffffffffffffffffffffffffffffffffff168152506009600080548152602001908152602001600020600082015181600001556020820151816001019080519060200190612e189291906137df565b506040820151816002019080519060200190612e359291906137df565b506060820151816003019080519060200190612e529291906137df565b506080820151816004019080519060200190612e6f9291906137df565b5060a0820151816005015560c0820151816006019080519060200190612e969291906137df565b5060e08201518160070160006101000a81548173ffffffffffffffffffffffffffffffffffffffff021916908373ffffffffffffffffffffffffffffffffffffffff160217905550905050505050505050565b60015481565b60055481565b60005481565b60026000815480929190600101919050555060405180610120016040528060025481526020018681526020018581526020018481526020018381526020013373ffffffffffffffffffffffffffffffffffffffff1681526020018273ffffffffffffffffffffffffffffffffffffffff1681526020016000151581526020016040518060400160405280600281526020017f4e41000000000000000000000000000000000000000000000000000000000000815250815250600860006002548152602001908152602001600020600082015181600001556020820151816001019080519060200190612fee9291906137df565b50604082015181600201908051906020019061300b9291906137df565b5060608201518160030190805190602001906130289291906137df565b5060808201518160040190805190602001906130459291906137df565b5060a08201518160050160006101000a81548173ffffffffffffffffffffffffffffffffffffffff021916908373ffffffffffffffffffffffffffffffffffffffff16021790555060c08201518160060160006101000a81548173ffffffffffffffffffffffffffffffffffffffff021916908373ffffffffffffffffffffffffffffffffffffffff16021790555060e08201518160060160146101000a81548160ff0219169083151502179055506101008201518160070190805190602001906131119291906137df565b509050505050505050565b6000600c600084815260200190815260200160002090506040518060400160405280600781526020017f416c6c6f7465640000000000000000000000000000000000000000000000000081525081600401908051906020019061318092919061385f565b508181600301908051906020019061319992919061385f565b50505050565b60035481565b6007602052806000526040600020600091509050806000015490806001018054600181600116156101000203166002900480601f0160208091040260200160405190810160405280929190818152602001828054600181600116156101000203166002900480156132575780601f1061322c57610100808354040283529160200191613257565b820191906000526020600020905b81548152906001019060200180831161323a57829003601f168201915b505050505090806002018054600181600116156101000203166002900480601f0160208091040260200160405190810160405280929190818152602001828054600181600116156101000203166002900480156132f55780601f106132ca576101008083540402835291602001916132f5565b820191906000526020600020905b8154815290600101906020018083116132d857829003601f168201915b505050505090806003018054600181600116156101000203166002900480601f0160208091040260200160405190810160405280929190818152602001828054600181600116156101000203166002900480156133935780601f1061336857610100808354040283529160200191613393565b820191906000526020600020905b81548152906001019060200180831161337657829003601f168201915b505050505090806004018054600181600116156101000203166002900480601f0160208091040260200160405190810160405280929190818152602001828054600181600116156101000203166002900480156134315780601f1061340657610100808354040283529160200191613431565b820191906000526020600020905b81548152906001019060200180831161341457829003601f168201915b5050505050908060050160009054906101000a900473ffffffffffffffffffffffffffffffffffffffff16908060060160009054906101000a900473ffffffffffffffffffffffffffffffffffffffff16908060060160149054906101000a900460ff1690806007018054600181600116156101000203166002900480601f01602080910402602001604051908101604052809291908181526020018280546001816001161561010002031660029004801561352e5780601f106135035761010080835404028352916020019161352e565b820191906000526020600020905b81548152906001019060200180831161351157829003601f168201915b5050505050905089565b6005600081548092919060010191905055506040518060a0016040528060055481526020018573ffffffffffffffffffffffffffffffffffffffff16815260200184815260200183815260200182815250600c600060055481526020019081526020016000206000820151816000015560208201518160010160006101000a81548173ffffffffffffffffffffffffffffffffffffffff021916908373ffffffffffffffffffffffffffffffffffffffff160217905550604082015181600201908051906020019061360b9291906137df565b5060608201518160030190805190602001906136289291906137df565b5060808201518160040190805190602001906136459291906137df565b5090505050505050565b600b6020528060005260406000206000915090508060000154908060010154908060020160009054906101000a900473ffffffffffffffffffffffffffffffffffffffff16905083565b60045481565b6003600081548092919060010191905055506040518060c0016040528060035481526020018581526020018481526020018381526020018281526020013373ffffffffffffffffffffffffffffffffffffffff16815250600a600060035481526020019081526020016000206000820151816000015560208201518160010190805190602001906137319291906137df565b50604082015181600201908051906020019061374e9291906137df565b50606082015181600301908051906020019061376b9291906137df565b5060808201518160040190805190602001906137889291906137df565b5060a08201518160050160006101000a81548173ffffffffffffffffffffffffffffffffffffffff021916908373ffffffffffffffffffffffffffffffffffffffff16021790555090505050505050565b60025481565b828054600181600116156101000203166002900490600052602060002090601f016020900481019282601f1061382057805160ff191683800117855561384e565b8280016001018555821561384e579182015b8281111561384d578251825591602001919060010190613832565b5b50905061385b91906138df565b5090565b828054600181600116156101000203166002900490600052602060002090601f016020900481019282601f106138a057805160ff19168380011785556138ce565b828001600101855582156138ce579182015b828111156138cd5782518255916020019190600101906138b2565b5b5090506138db91906138df565b5090565b61390191905b808211156138fd5760008160009055506001016138e5565b5090565b9056fea265627a7a7231582053c7a6edf5fcc8cf1ecae6cf94b68ae58a135c7d1ec67e33af6d652251c64f6164736f6c63430005100032",
  "source": "pragma solidity ^0.5.0;\r\ncontract Identity \r\n{\r\n  uint public regCount = 0;\r\n  uint public transCount=100;\r\n  uint public ktcount=500;\r\n  uint public dcount=0;\r\n  uint public respcount=0;\r\n  uint public account=0;\r\n  string ipfsHash;\r\n  struct User\r\n  {\r\n    uint id;\r\n    string name;\r\n\tstring fname;\r\n\tstring gender;\r\n\tstring email;\r\n\tuint mobile;\r\n\tstring addr;\r\n\taddress owner;\r\n  }\r\n  struct Udoc\r\n  {\r\n\t uint docid;\r\n\t string usrname;\r\n\t string vname;\r\n\t string docname;\r\n\t string ipfshash;\r\n\t address owner;\r\n  }\r\n  struct Dtrans\r\n  {\r\n\t uint tid;\r\n\t string orgname;\r\n\t string uname;\r\n\t string sel;\r\n\t string desc;\r\n\t address owner;\r\n\t address to;\r\n\t bool status;\r\n\t string upd;\r\n  }\r\n  struct Ktrans\r\n  {\r\n\t uint tranid;\r\n\t string org;\r\n\t string username;\r\n\t string typed;\r\n\t string purp;\r\n\t address owner;\r\n\t address to;\r\n\t bool status; \r\n\t string upd;\r\n  }\r\n  struct Resp\r\n  {\r\n\t uint respid;\r\n\t uint reqid;\r\n\t address owner;\r\n  }\r\n  struct Acc\r\n  {\r\n\tuint acid;\r\n\taddress acaddr;\r\n\tstring pkey;\r\n\tstring aname;\r\n\tstring stat;\r\n  }\r\n   mapping(uint=>Dtrans) public dtrans;  \r\n   mapping(uint=>Ktrans) public ktrans; \r\n   mapping(uint=>User) public users;\r\n   mapping(uint=>Udoc) public docs;\r\n   mapping(uint=>Resp) public res;\r\n   mapping(uint=>Acc) public acc;\r\n  function createacc(address acaddr,string memory _pkey,string memory _aname,string memory _stat) public\r\n  {\r\n\t account++;\r\n\t acc[account]=Acc(account,acaddr,_pkey,_aname,_stat);\r\n  }\r\n   \r\n  function createdata(string memory _name,string memory _fname,string memory _gender,string memory _email,uint _mobile,string memory _addr) public \r\n  {\r\n     regCount ++;\r\n\t users[regCount] = User(regCount,_name,_fname,_gender,_email,_mobile,_addr,msg.sender);\r\n  }\r\n  \r\n  function requestdata(string memory _orgname,string memory _uname,string memory _sel,string memory _desc,address _to) public \r\n  {\r\n     transCount++;\r\n\t dtrans[transCount] = Dtrans(transCount,_orgname,_uname,_sel,_desc,msg.sender,_to,false,\"NA\");\r\n  }\r\n  \r\n  function requestdocument(string memory _org,string memory _username,string memory _typed,string memory _purp,address _to) public \r\n  {\r\n     ktcount++;\r\n\t ktrans[ktcount] = Ktrans(ktcount,_org,_username,_typed,_purp,msg.sender,_to,false,\"NA\");\r\n  }\r\n  \r\n  function uploaddocument(string memory _usrname,string memory _vname,string memory _docname,string memory _ipfshash) public \r\n  {\r\n     dcount++;\r\n\t docs[dcount] = Udoc(dcount,_usrname,_vname,_docname,_ipfshash,msg.sender);\r\n  }\r\n  function addaccount(uint acid,string memory _name) public\r\n  {\r\n\tAcc storage _a=acc[acid];\r\n\t_a.stat=\"Alloted\";\r\n\t_a.aname=_name;\r\n  }\r\n    function addresponse(uint reqid,uint t,uint p) public \r\n    {\r\n     respcount++;\r\n\t Dtrans storage _dts = dtrans[reqid];\r\n\t Ktrans storage _kts=ktrans[reqid];\r\n\t if(p==1)\r\n\t {\r\n\t\tif(t==1)\r\n\t\t{\r\n\t\t\t_dts.status=true;\r\n\t\t\t_dts.upd=\"Updated\";\r\n\t\t}\r\n\t\telse\r\n\t\t{\r\n\t\t\t_kts.status=true;\r\n\t\t\t_kts.upd=\"Updated\";\r\n\t\t}\r\n\t\tres[respcount] = Resp(respcount,reqid,msg.sender);\r\n     }\r\n\t else\r\n\t {\r\n\t\tif(t==1)\r\n\t\t\t_dts.upd=\"Updated\";\r\n\t\telse\r\n\t\t\t_kts.upd=\"Updated\";\r\n\t\tres[respcount] = Resp(respcount,reqid,msg.sender);\r\n     }\r\n   }\r\n}\t",
  "sourcePath": "G:\\blockchainIdenttiy\\contracts\\identity.sol",
  "compiler": {
    "name": "solc",
    "version": "0.5.16+commit.9c3226ce.Emscripten.clang"
  },
  "schemaVersion": "3.1.0",
  "updatedAt": "2020-09-21T12:45:17.998Z",
  "networkType": "ethereum",
  "devdoc": {
    "methods": {}
  },
  "userdoc": {
    "methods": {}
  }
}